:020000040800F2
:10000000002800205D150008ED140008F314000816
:10001000F9140008FF14000805150008000000008E
:100020000000000000000000000000000B150008A8
:100030001715000800000000231500082F15000800
:10004000A5150008A5150008A5150008A5150008A8
:10005000A5150008A5150008A5150008A515000898
:10006000A5150008A5150008A5150008A515000888
:10007000A5150008A5150008A5150008A515000878
:10008000A5150008A5150008A5150008A515000868
:10009000A5150008A5150008A5150008A515000858
:1000A000A5150008A5150008A5150008A515000848
:1000B0003D150008A515000800000000A515000862
:1000C000A51500080000000000000000A5150008AC
:1000D00000000000A5150008A5150008000000009C
:1000E000A5150008A5150008A515000800000000CA
:1000F0000000000000000000000000000000000000
:0C01000000000000000000005FF808F1A3
:10010C0010B5054C237833B9044B13B10448AFF345
:10011C0000800123237010BD70000020000000003F
:10012C00D42B000808B5034B1BB103490348AFF3AC
:10013C00008008BD0000000074000020D42B0008D3
:10014C0080B483B000AF7860094A7B6852F82330E2
:10015C00012B06D1064A7B68002142F823100123AB
:10016C0000E0002318460C37BD4680BC704700BF2A
:10017C008C00002080B582B000AF00237B606FE064
:10018C003B4A7B6852F823203A497B6841F823208C
:10019C00394A7B6852F8232035497B6841F8232083
:1001AC00364A7B6852F8232035497B6831F8133086
:1001BC001946104601F0DCFC034619462E4A7B68B2
:1001CC0042F823102B4A7B6852F8232028497B687D
:1001DC0051F823309A4240D1254A7B6852F82320AB
:1001EC0025497B6851F823309A4236D1254A7B68E1
:1001FC0052F8232020497B6851F823309A4218D0BA
:10020C001D4A7B6852F823201E497B6841F8232045
:10021C00194A7B6852F82330002B1ED11A4A7B688E
:10022C00322142F82310194A7B68012142F823102D
:10023C0013E0154A7B6852F823305A1E12497B682A
:10024C0041F82320104A7B6852F82330002B04D14C
:10025C000C4A7B68012142F823107B6801337B60D8
:10026C007B68022B8CDD00BF00BF0837BD4680BD0C
:10027C0020000020140000202C000020080000208A
:10028C000000002038000020440000208C000020DA
:10029C0080B582B000AF78607B68092B00F2C88112
:1002AC0001A252F823F000BFDD020008330300085E
:1002BC0089030008DF030008350400088B040008DC
:1002CC00E1040008370500088D050008E305000867
:1002DC0000224FF48071D54801F061FC00224FF4EC
:1002EC000071D24801F05BFC00224FF48061CF48D2
:1002FC0001F055FC00224FF40061CC4801F04FFC9A
:10030C0000224FF48051C94801F049FC00224FF4FF
:10031C000051C64801F043FC01224FF48041C34810
:10032C0001F03DFC85E101224FF48071BF4801F0E2
:10033C0036FC00224FF40071BC4801F030FC002266
:10034C004FF48061B94801F02AFC01224FF400619E
:10035C00B64801F024FC01224FF48051B34801F05F
:10036C001EFC01224FF40051B04801F018FC012290
:10037C004FF48041AD4801F012FC5AE100224FF4D9
:10038C008071AA4801F00BFC00224FF40071A748C1
:10039C0001F005FC01224FF48061A44801F0FFFB41
:1003AC0000224FF40061A14801F0F9FB00224FF448
:1003BC0080519E4801F0F3FB01224FF400519B4801
:1003CC0001F0EDFB00224FF48041984801F0E7FB6F
:1003DC002FE100224FF48071944801F0E0FB0022E1
:1003EC004FF40071914801F0DAFB00224FF4806168
:1003FC008E4801F0D4FB00224FF400618B4801F0D1
:10040C00CEFB01224FF48051884801F0C8FB012239
:10041C004FF40051854801F0C2FB00224FF480419B
:10042C00824801F0BCFB04E101224FF480717F484B
:10043C0001F0B5FB00224FF400717C4801F0AFFBDA
:10044C0000224FF48061794801F0A9FB01224FF49E
:10045C000061764801F0A3FB01224FF480517348F0
:10046C0001F09DFB00224FF40051704801F097FB06
:10047C0000224FF480416D4801F091FBD9E000223D
:10048C004FF48071694801F08AFB01224FF400712E
:10049C00664801F084FB00224FF48061634801F050
:1004AC007EFB00224FF40061604801F078FB0122D2
:1004BC004FF480515D4801F072FB00224FF4005163
:1004CC005A4801F06CFB00224FF48041574801F070
:1004DC0066FBAEE000224FF48071544801F05FFBE4
:1004EC0001224FF40071514801F059FB00224FF4E6
:1004FC0080614E4801F053FB00224FF400614B48E1
:10050C0001F04DFB00224FF48051484801F047FBAD
:10051C0000224FF40051454801F041FB00224FF4FA
:10052C008041424801F03BFB83E000224FF4807194
:10053C003E4801F034FB00224FF400713B4801F0BF
:10054C002EFB00224FF48061384801F028FB012279
:10055C004FF40061354801F022FB01224FF4805129
:10056C00324801F01CFB01224FF400512F4801F0DE
:10057C0016FB01224FF480412C4801F010FB58E08F
:10058C0000224FF48071294801F009FB00224FF43E
:10059C000071264801F003FB00224FF480612348D0
:1005AC0001F0FDFA00224FF40061204801F0F7FA47
:1005BC0000224FF480511D4801F0F1FA00224FF453
:1005CC0000511A4801F0EBFA00224FF48041174811
:1005DC0001F0E5FA2DE000224FF48071134801F090
:1005EC00DEFA00224FF40071104801F0D8FA002214
:1005FC004FF480610D4801F0D2FA00224FF40061F3
:10060C000A4801F0CCFA01224FF48051074801F05E
:10061C00C6FA00224FF40051044801F0C0FA00223F
:10062C004FF48041014801F0BAFA02E000080140A1
:10063C0000BF00BF0837BD4680BD00BF80B582B08B
:10064C0000AF78607B685A4203F0030302F00302A8
:10065C0058BF5342032B73D801A252F823F000BFAA
:10066C007D060008B1060008E50600081907000819
:10067C0000220121354801F092FA0122022133486F
:10068C0001F08DFA01220421304801F088FA012290
:10069C0008212E4801F083FA2D4B1B681846FFF7F2
:1006AC00F7FD4EE000220221284801F078FA0122E1
:1006BC000121264801F073FA01220421234801F09C
:1006CC006EFA01220821214801F069FA204B5B687F
:1006DC001846FFF7DDFD34E0002204211B4801F031
:1006EC005EFA01220121194801F059FA0122022176
:1006FC00164801F054FA01220821144801F04FFA6F
:10070C00134B9B681846FFF7C3FD1AE00022082123
:10071C000E4801F044FA012201210C4801F03FFA85
:10072C0001220221094801F03AFA0122042107486A
:10073C0001F035FA064BDB681846FFF7A9FD00E01F
:10074C0000BF00BF0837BD4680BD00BF0008014098
:10075C009800002080B400AF1A4B1B681A4A82FB29
:10076C0003129210DB17D31A184A1360154B196831
:10077C00154B83FB01239A10CB17D21A13469B00FF
:10078C0013445B00CA1A114B5A60114B1B680E4A7A
:10079C0082FB03129210DB17D31A0C4A93600C4B9A
:1007AC001968094B83FB01239A10CB17D21A1346F5
:1007BC009B0013445B00CA1A044BDA6000BFBD46B1
:1007CC0080BC7047AC00002067666666980000200D
:1007DC00B000002080B500AFFFF7BCFF144B5B6886
:1007EC00012B12D1134B1B68002B0ED0124B1B6824
:1007FC00013B114A1360114B1B68013B0F4A1360FC
:10080C004FF47A71012000F0C7FD094B9B68012B56
:10081C000BD10B4B1B685A1C09490A601846FFF791
:10082C000DFFFA21022000F0B7FD00BF80BD00BF14
:10083C00C80000205C000020AC000020B0000020AC
:10084C00B400002080B500AF012220210E4801F039
:10085C00A6F9012280210C4801F0A1F901224021C6
:10086C00094801F09CF901220821084801F097F988
:10087C0001222021054801F092F9012210210348A0
:10088C0001F08DF900BF80BD00080140000C014053
:10089C0080B500AF984B1B680C2B00F27B8201A239
:1008AC0052F823F0E508000815090008B7090008FC
:1008BC00610A00082D0B0008A10D0008A10D00080D
:1008CC00A10D0008A10D0008A10D0008D70B000810
:1008DC00E10C00085D0C0008FFF7B4FF864B012209
:1008EC001A60864B1B68864A1360864B1B68864AC7
:1008FC001360854B1B684FF47A7202FB03F31946A5
:10090C00002000F049FD54E2002220217F4801F034
:10091C0046F9012280217D4801F041F90122402154
:10092C007A4801F03CF901220821794801F037F9A5
:10093C0000222021764801F032F90122102174485E
:10094C0001F02DF9734B1B68012B10D16A4B02225D
:10095C001A60714B1B686C4A13606B4B1B684FF42D
:10096C007A7202FB03F31946002000F015FD0020FB
:10097C00FFF7E6FB0346012B40F00E82FFF762FF08
:10098C005D4B0A221A605D4B1B685D4A13605E4B1F
:10099C0002221A60614B1B68C3F101035F4A1360AA
:1009AC00FA21002000F0F8FCF6E100222021574843
:1009BC0001F0F5F801228021544801F0F0F80122F1
:1009CC004021524801F0EBF801220821504801F077
:1009DC00E6F8012220214E4801F0E1F80022102116
:1009EC004B4801F0DCF84B4B1B68012B14D1424BEC
:1009FC0003221A60434B1B68414A13603F4B1B6830
:100A0C00414A13603E4B1B684FF47A7202FB03F3AE
:100A1C001946002000F0C0FC0020FFF791FB0346B4
:100A2C00012B40F0BB81FFF70DFF334B0A221A60FC
:100A3C00324B1B68324A1360334B02221A60374B1D
:100A4C001B68C3F10103354A1360FA21002000F042
:100A5C00A3FCA3E1012220212C4801F0A0F80022E4
:100A6C0080212A4801F09BF801224021274801F0FF
:100A7C0096F800220821264801F091F80122202145
:100A8C00234801F08CF801221021214801F087F84D
:100A9C00204B1B68012B10D1174B04221A601E4BE4
:100AAC001B68174A1360164B1B684FF47A7202FBD3
:100ABC0003F31946002000F06FFC0020FFF740FB09
:100ACC000346012B40F06C81FFF7BCFE0A4B0A2257
:100ADC001A600A4B1B680A4A13600B4B02221A60FD
:100AEC000E4B1B68C3F101030C4A1360FA21002062
:100AFC0000F052FC54E100BFA80000205000002080
:100B0C00AC00002058000020B0000020000801407C
:100B1C00000C0140C8000020540000205C000020A4
:100B2C0001222021A44801F03AF801228021A24898
:100B3C0001F035F8002240219F4801F030F80022E6
:100B4C0008219E4801F02BF8012220219B4801F03E
:100B5C0026F801221021994801F021F8984B1B68C6
:100B6C00012B14D1974B01221A60974B1B68974AA3
:100B7C001360974B1B68974A1360964B1B684FF496
:100B8C007A7202FB03F31946002000F005FC0020EA
:100B9C00FFF7D6FA0346012B40F00481FFF752FE13
:100BAC00884B0A221A60884B1B68884A1360894B51
:100BBC0002221A60884B1B68C3F10103864A13603A
:100BCC00FA21002000F0E8FBECE07D4B1B68012BC8
:100BDC000BD12021784800F0FAFF0821774800F06B
:100BEC00F6FFFA21002000F0D7FB0020FFF7A8FA4F
:100BFC000346012B0FD1FFF725FE724B0C221A6016
:100C0C00764B1B68714A1360724B03221A60FA21EF
:100C1C00002000F0C1FB0120FFF792FA0346012BE4
:100C2C000AD16A4B1B68622B03DC684B1B680133CF
:100C3C0000E00123654A13600220FFF781FA0346A6
:100C4C00012B40F0B180614B1B685F4A1360ABE035
:100C5C005B4B1B68012B0BD14021574800F0B7FFB1
:100C6C001021564800F0B3FFFA21002000F094FB4D
:100C7C000020FFF765FA0346012B0FD1FFF7E2FDC9
:100C8C00504B0B221A60524B1B68504A1360514B4D
:100C9C0004221A60FA21002000F07EFB0120FFF7ED
:100CAC004FFA0346012B0AD1484B1B68622B03DC1D
:100CBC00464B1B68013300E00123444A13600220B9
:100CCC00FFF73EFA0346012B70D1404B1B68434A99
:100CDC0013606BE03A4B1B68012B0BD1802136481B
:100CEC0000F075FF2021354800F071FFFA2100203B
:100CFC0000F052FB0020FFF723FA0346012B2DD105
:100D0C00364B1A68324B1B681A442F4B1B689A429D
:100D1C0014D1314B1B68C3F101032F4A1360294BCB
:100D2C0000221A602E4B00221A600A21012000F0CA
:100D3C0033FB1421022000F02FFB0FE0FFF782FDA4
:100D4C00204B0A221A60204B1B68204A1360214B4F
:100D5C0002221A60FA21002000F01EFB0120FFF78E
:100D6C00EFF90346012B0AD1184B1B68622B03DCED
:100D7C00164B1B68013300E00123144A1360022058
:100D8C00FFF7DEF90346012B12D1104B1B68104AFA
:100D9C0013600DE000BF0CE000BF0AE000BF08E0EC
:100DAC0000BF06E000BF04E000BF02E000BF00E0AF
:100DBC0000BF00BF80BD00BF00080140000C014017
:100DCC00C8000020A800002050000020AC0000202B
:100DDC0058000020B00000205C00002054000020CF
:100DEC00B400002080B500AF064B00221A600A2127
:100DFC00012000F0D1FA0A21022000F0CDFA00BF48
:100E0C0080BD00BFA800002080B500AF00F0C6FB7D
:100E1C0000F030F800F0B6F800F068F80F4801F078
:100E2C001BFB002200210E4800F078F90A22002159
:100E3C000C4800F073F90A2200210B4800F06EF9FF
:100E4C000A220021094800F069F90A220021084809
:100E5C0000F064F900F070FAFCE700BFD400002049
:100E6C00F10D00089D080008E1070008E1130008D7
:100E7C008101000880B590B000AF07F1180328225B
:100E8C000021184601F098FE3B1D00221A605A60A2
:100E9C009A60DA601A610223BB610123BB621023E2
:100EAC00FB6200237B6307F11803184600F0A8FED1
:100EBC000346002B01D000F0EBF80F237B600023DE
:100ECC00BB600023FB6000233B6100237B613B1D67
:100EDC000021184601F014F90346002B01D000F054
:100EEC00D7F800BF4037BD4680BD000080B586B046
:100EFC0000AF07F1080300221A605A609A60DA60AA
:100F0C003B4600221A605A601D4B4FF080421A601B
:100F1C001B4B41F63F725A60194B00229A60184BDA
:100F2C000922DA60164B00221A61154B00229A61D5
:100F3C00134801F041FA0346002B01D000F0A8F849
:100F4C004FF48053BB6007F1080319460C4801F0BD
:100F5C00BFFB0346002B01D000F09AF800233B6046
:100F6C0000237B603B461946054801F097FD03467C
:100F7C00002B01D000F08CF800BF1837BD4680BDA7
:100F8C00D400002080B588B000AF07F11003002218
:100F9C001A605A609A60DA60344B9B69334A43F0AA
:100FAC0010039361314B9B6903F01003FB60FB68EA
:100FBC002E4B9B692D4A43F0040393612B4B9B6989
:100FCC0003F00403BB60BB68284B9B69274A43F0C2
:100FDC0008039361254B9B6903F008037B607B68D6
:100FEC00002247F6EF71224800F0D9FD002238218B
:100FFC00204800F0D4FD4FF400533B6100237B618B
:10100C000123BB6107F1100319461B4800F036FCA5
:10101C0047F6EF733B6101237B610023BB61022325
:10102C00FB6107F110031946114800F027FC03235C
:10103C003B6100237B610123BB6107F1100319465F
:10104C000C4800F01BFC38233B6101237B6100231F
:10105C00BB610223FB6107F110031946054800F040
:10106C000DFC00BF2037BD4680BD00BF0010024004
:10107C0000080140000C01400010014080B582B016
:10108C0000AF786000F00EF900BF0837BD4680BD98
:10109C0080B400AF72B600BFFEE7000090B486B01B
:1010AC0000AF3C1D84E807003B601A4B1B687B615A
:1010BC0015E07B695A1E184879690B465B000B4496
:1010CC009B001844144913465B0013449B00CA1838
:1010DC00034607CA83E807007B69013B7B617A6999
:1010EC003B689A42E5DC0C493A6813465B001344B2
:1010FC009B000B441C463B1D93E8070084E807004B
:10110C00044B1B680133034A136000BF1837BD46FC
:10111C0090BC7047B80000201C01002080B58AB03C
:10112C0000AFF860B9607A60FB683B61BB685A4AF3
:10113C00A2FB0323DB087B617B68574AA2FB0323DA
:10114C00DB08BB61554B1B68282B00F0A180534B6F
:10115C001B68002B06D1002307F1100207CAFFF70A
:10116C009DFF96E000237B6200233B620DE07A6AD0
:10117C00531C7B624A4913465B0013449B000B448F
:10118C0004331A683B6A13443B62444B1B687A6A0B
:10119C009A4203DA7A693B6A9A42E8D27A693B6AE4
:1011AC009A4259D27B6A013B7B623D497A6A13466B
:1011BC005B0013449B000B4404331B683A6AD31A3C
:1011CC003B627A693B6AD31A7B617B6A07F1100236
:1011DC0007CAFFF763FF3B6AFB617A6A531C7B62A9
:1011EC002F4913465B0013449B000B4404331A68CD
:1011FC003B6A13443B6229E029497A6A13465B0037
:10120C0013449B000B4404331A68FB691344FB61C1
:10121C00FA693B6AD31A184621497A6A13465B006D
:10122C0013449B000B44043318601D497A6A13461F
:10123C005B0013449B000B4404331A683B6A134451
:10124C003B623B6AFB617B6A01337B62134B1B681D
:10125C007A6A9A42D0DB1CE0104B1B687A6A9A427D
:10126C000BDA396A0E487A6A13465B0013449B000A
:10127C00034404331B68CB1A3B627A693B6AD31A6A
:10128C007B617B6A07F1100207CAFFF707FF00E0DA
:10129C0000BF2837BD4680BDCDCCCCCCB8000020DB
:1012AC001C01002080B400AF084B1B68002B08D039
:1012BC00074B5B68002B04D0054B5B68013B044A71
:1012CC00536000BFBD4680BC704700BFB800002013
:1012DC001C01002080B485B000AF7860144B1B68F3
:1012EC00013B134A13607B68FB6015E0FB685A1CDA
:1012FC001048F9680B465B000B449B0018440D49E1
:10130C0013465B0013449B00CA18034607CA83E8C4
:10131C000700FB680133FB60054B1B68FA689A42B7
:10132C00E4DB00BF00BF1437BD4680BC704700BF74
:10133C00B80000201C01002080B584B000AF154B14
:10134C005B68002B21D1134B1B689847114B9B6892
:10135C00002B03D10020FFF7BDFF16E00D4A3B1D0B
:10136C0007CA83E807000020FFF7B4FF7868FA6823
:10137C0013469B0013445B001946FA6813469B0006
:10138C0013445B001A46FFF7C9FE00BF1037BD4679
:10139C0080BD00BF1C01002080B483B000AF78601A
:1013AC003960094B1B683A6892FBF3F207497B687A
:1013BC0041F82320064A7B68002142F8231000BF25
:1013CC000C37BD4680BC704760000020BC0000207C
:1013DC00C800002080B483B000AF00237B601CE009
:1013EC00124A7B6852F82330002B13DD0F4A7B68BE
:1013FC0052F823305A1E0D497B6841F823200B4AC2
:10140C007B6852F82330002B04D1094A7B680121F8
:10141C0042F823107B6801337B607B68022BDFDD95
:10142C0000BF00BF0C37BD4680BC7047BC0000201D
:10143C00C800002080B485B000AF154B9B69144ADE
:10144C0043F001039361124B9B6903F00103BB60F2
:10145C00BB680F4BDB690E4A43F08053D3610C4BD6
:10146C00DB6903F080537B607B680A4B5B68FB6035
:10147C00FB6823F0E063FB60FB6843F08063FB6078
:10148C00044AFB68536000BF1437BD4680BC7047EC
:10149C00001002400000014080B584B000AF7860BD
:1014AC007B681B68B3F1804F13D10C4BDB690B4A83
:1014BC0043F00103D361094BDB6903F00103FB60CB
:1014CC00FB68002200211C2000F0A1F91C2000F078
:1014DC00BAF900BF1037BD4680BD00BF00100240F6
:1014EC0080B400AFFEE780B400AFFEE780B400AF7D
:1014FC00FEE780B400AFFEE780B400AFFEE780B437
:10150C0000AF00BFBD4680BC704780B400AF00BFC9
:10151C00BD4680BC704780B400AF00BFBD4680BCE8
:10152C00704780B500AF00F07FF800BF80BD0000B1
:10153C0080B500AF024800F0DBFF00BF80BD00BFEC
:10154C00D400002080B400AF00BFBD4680BC704703
:10155C00FFF7F8FF0B480C490C4A002302E0D45863
:10156C00C4500433C4188C42F9D3094A094C0023E3
:10157C0001E013600432A242FBD301F0F9FAFFF749
:10158C0043FC70470000002070000020182C00085D
:10159C007000002000030020FEE7000080B500AFC3
:1015AC00084B1B68074A43F010031360032000F03C
:1015BC0023F90F2000F008F8FFF73CFF0023184632
:1015CC0080BD00BF0020024080B582B000AF7860C3
:1015DC00124B1A68124B1B7819464FF47A73B3FBF3
:1015EC00F1F3B2FBF3F3184600F03BF90346002B82
:1015FC0001D001230EE07B680F2B0AD800227968FA
:10160C004FF0FF3000F003F9064A7B6813600023AB
:10161C0000E0012318460837BD4680BD6400002059
:10162C006C0000206800002080B400AF054B1B78D4
:10163C001A46054B1B681344034A136000BFBD4692
:10164C0080BC70476C000020FC02002080B400AF0E
:10165C00024B1B681846BD4680BC7047FC0200203C
:10166C0080B485B000AF78607B6803F00703FB6043
:10167C000C4BDB68BB60BA684FF6FF031340BB60D2
:10168C00FB681A02BB68134343F0BF6343F4003397
:10169C00BB60044ABB68D36000BF1437BD4680BC36
:1016AC00704700BF00ED00E080B400AF044BDB6876
:1016BC001B0A03F007031846BD4680BC704700BFE9
:1016CC0000ED00E080B483B000AF0346FB7197F9E6
:1016DC000730002B0BDBFB7903F01F02064997F94F
:1016EC0007305B09012000FA02F241F8232000BF09
:1016FC000C37BD4680BC704700E100E080B483B07D
:10170C0000AF03463960FB7197F90730002B0ADBF9
:10171C003B68DAB20C4997F907301201D2B20B448C
:10172C0083F800230AE03B68DAB20849FB7903F03E
:10173C000F03043B1201D2B20B441A7600BF0C37D4
:10174C00BD4680BC704700BF00E100E000ED00E04A
:10175C0080B489B000AFF860B9607A60FB6803F0C0
:10176C000703FB61FB69C3F10703042B28BF0423A8
:10177C00BB61FB690433062B02D9FB69033B00E018
:10178C0000237B614FF0FF32BB6902FA03F3DA43AB
:10179C00BB681A407B699A404FF0FF317B6901FAB4
:1017AC0003F3D9437B680B40134318462437BD46DB
:1017BC0080BC704780B582B000AF78607B68013B1D
:1017CC00B3F1807F01D301230FE00A4A7B68013B10
:1017DC0053600F214FF0FF30FFF790FF054B0022B5
:1017EC009A60044B07221A60002318460837BD463E
:1017FC0080BD00BF10E000E080B582B000AF786023
:10180C007868FFF72DFF00BF0837BD4680BD80B557
:10181C0086B000AF0346B9607A60FB7300237B612E
:10182C00FFF742FF78617A68B9687869FFF790FF33
:10183C00024697F90F3011461846FFF75FFF00BFBD
:10184C001837BD4680BD80B582B000AF0346FB7132
:10185C0097F907301846FFF735FF00BF0837BD462C
:10186C0080BD80B582B000AF78607868FFF7A2FFCA
:10187C00034618460837BD4680BD000080B48BB0C7
:10188C0000AF7860396000237B6200233B6248E143
:10189C0001227B6A02FA03F3FB613B681B68FA695D
:1018AC001340BB61BA69FB699A4240F037813B68CF
:1018BC005B68A34A93425ED0A14A934275D8A14A71
:1018CC00934258D09F4A93426FD89F4A934252D02A
:1018DC009D4A934269D89D4A93424CD09B4A93426D
:1018EC0063D89B4A934246D0994A93425DD8122BB7
:1018FC002AD8122B59D801A252F823F083190008C8
:10190C005D1900086F190008B1190008B719000813
:10191C00B7190008B7190008B7190008B71900085B
:10192C00B7190008B7190008B7190008B71900084B
:10193C00B7190008B7190008B7190008B71900083B
:10194C006519000879190008824A934213D02CE0DB
:10195C003B68DB683B6229E03B68DB6804333B6235
:10196C0024E03B68DB6808333B621FE03B68DB68C4
:10197C000C333B621AE03B689B68002B02D10423BA
:10198C003B6213E03B689B68012B05D108233B624B
:10199C007B68FA691A6109E008233B627B68FA6983
:1019AC005A6103E000233B6200E000BFBB69FF2BE0
:1019BC0001D87B6801E07B6804337B61BB69FF2B3A
:1019CC0002D87B6A9B0002E07B6A083B9B003B6170
:1019DC007B691A680F213B6901FA03F3DB431A4058
:1019EC00396A3B6901FA03F31A437B691A603B6855
:1019FC005B6803F08053002B00F09080564B9B6982
:101A0C00554A43F001039361534B9B6903F0010367
:101A1C00BB60BB68514A7B6A9B08023352F8233087
:101A2C00FB607B6A03F003039B000F2202FA03F3B3
:101A3C00DB43FA681340FB607B68494A93420DD044
:101A4C007B68484A934207D07B68474A934201D14E
:101A5C00022304E0032302E0012300E000237A6A5E
:101A6C0002F0030292009340FA681343FB603B4977
:101A7C007B6A9B080233FA6841F823203B685B6859
:101A8C0003F48013002B06D0384B9A683749BB6996
:101A9C0013438B6006E0354B9A68BB69DB433349D3
:101AAC0013408B603B685B6803F40013002B06D07B
:101ABC002E4BDA682D49BB691343CB6006E02B4BE8
:101ACC00DA68BB69DB4329491340CB603B685B6830
:101ADC0003F40033002B06D0244B5A682349BB690E
:101AEC0013434B6006E0214B5A68BB69DB431F492B
:101AFC0013404B603B685B6803F48033002B06D0CB
:101B0C001A4B1A681949BB6913430B6006E0174B53
:101B1C001A68BB69DB43154913400B607B6A0133C0
:101B2C007B623B681A687B6A22FA03F3002B7FF412
:101B3C00AFAE00BF00BF2C37BD4680BC704700BFA6
:101B4C0000003210000031100000221000002110A3
:101B5C0000001210000011100010024000000140A3
:101B6C0000080140000C014000100140000401403D
:101B7C0080B485B000AF78600B467B807B689A6838
:101B8C007B881340002B02D00123FB7301E0002360
:101B9C00FB73FB7B18461437BD4680BC704780B482
:101BAC0083B000AF78600B467B8013467B707B78EC
:101BBC00002B03D07A887B681A6103E07B881A04B7
:101BCC007B681A6100BF0C37BD4680BC704780B47F
:101BDC0085B000AF78600B467B807B68DB68FB6070
:101BEC007A88FB6813401A04FB68D9437B880B4046
:101BFC001A437B681A6100BF1437BD4680BC70471E
:101C0C0080B586B000AF78607B68002B01D10123D2
:101C1C006CE27B681B6803F00103002B00F08780EB
:101C2C00924B5B6803F00C03042B0CD08F4B5B685E
:101C3C0003F00C03082B12D18C4B5B6803F480333C
:101C4C00B3F5803F0BD1894B1B6803F40033002B99
:101C5C006CD07B685B68002B68D1012346E27B6803
:101C6C005B68B3F5803F06D1804B1B687F4A43F419
:101C7C00803313602EE07B685B68002B0CD17B4BB0
:101C8C001B687A4A23F480331360784B1B68774ABD
:101C9C0023F4802313601DE07B685B68B3F5A02FF1
:101CAC000CD1724B1B68714A43F4802313606F4B49
:101CBC001B686E4A43F4803313600BE06B4B1B685C
:101CCC006A4A23F480331360684B1B68674A23F419
:101CDC00802313607B685B68002B13D0FFF7B6FC86
:101CEC00386108E0FFF7B2FC02463B69D31A642B5B
:101CFC0001D90323FAE15D4B1B6803F40033002B7D
:101D0C00F0D014E0FFF7A2FC386108E0FFF79EFC6E
:101D1C0002463B69D31A642B01D90323E6E1534BEA
:101D2C001B6803F40033002BF0D100E000BF7B688C
:101D3C001B6803F00203002B63D04C4B5B6803F071
:101D4C000C03002B0BD0494B5B6803F00C03082BE6
:101D5C001CD1464B5B6803F48033002B16D1434BEC
:101D6C001B6803F00203002B05D07B681B69012B59
:101D7C0001D00123BAE13D4B1B6823F0F8027B68CC
:101D8C005B69DB00394913430B603AE07B681B69E4
:101D9C00002B20D0364B01221A60FFF757FC38611C
:101DAC0008E0FFF753FC02463B69D31A022B01D91A
:101DBC0003239BE12D4B1B6803F00203002BF0D097
:101DCC002A4B1B6823F0F8027B685B69DB00274910
:101DDC0013430B6015E0264B00221A60FFF736FC0C
:101DEC00386108E0FFF732FC02463B69D31A022B3C
:101DFC0001D903237AE11D4B1B6803F00203002B6E
:101E0C00F0D17B681B6803F00803002B3AD07B6889
:101E1C009B69002B19D0174B01221A60FFF716FC97
:101E2C00386108E0FFF712FC02463B69D31A022B1B
:101E3C0001D903235AE10D4B5B6A03F00203002B1B
:101E4C00F0D0012000F09AFA1CE00A4B00221A6034
:101E5C00FFF7FCFB38610FE0FFF7F8FB02463B692C
:101E6C00D31A022B08D9032340E100BF0010024013
:101E7C0000004242800442429E4B5B6A03F0020324
:101E8C00002BE9D17B681B6803F00403002B00F0E6
:101E9C00A6800023FB75974BDB6903F08053002B66
:101EAC000DD1944BDB69934A43F08053D361914B32
:101EBC00DB6903F08053BB60BB680123FB758E4B61
:101ECC001B6803F48073002B18D18B4B1B688A4A58
:101EDC0043F480731360FFF7B9FB386108E0FFF738
:101EEC00B5FB02463B69D31A642B01D90323FDE0F1
:101EFC00814B1B6803F48073002BF0D07B68DB688C
:101F0C00012B06D17B4B1B6A7A4A43F00103136207
:101F1C002DE07B68DB68002B0CD1764B1B6A754A75
:101F2C0023F001031362734B1B6A724A23F0040300
:101F3C0013621CE07B68DB68052B0CD16D4B1B6AB4
:101F4C006C4A43F0040313626A4B1B6A694A43F000
:101F5C00010313620BE0674B1B6A664A23F0010313
:101F6C001362644B1B6A634A23F0040313627B689D
:101F7C00DB68002B15D0FFF769FB38610AE0FFF72F
:101F8C0065FB02463B69D31A41F28832934201D970
:101F9C000323ABE0574B1B6A03F00203002BEED07C
:101FAC0014E0FFF753FB38610AE0FFF74FFB0246E2
:101FBC003B69D31A41F28832934201D9032395E04D
:101FCC004C4B1B6A03F00203002BEED1FB7D012B63
:101FDC0005D1484BDB69474A23F08053D3617B68BA
:101FEC00DB69002B00F08180424B5B6803F00C0333
:101FFC00082B61D07B68DB69022B46D13F4B00225A
:10200C001A60FFF723FB386108E0FFF71FFB02465D
:10201C003B69D31A022B01D9032367E0354B1B68AC
:10202C0003F00073002BF0D17B681B6AB3F5803F83
:10203C0008D1304B5B6823F400327B689B682D49D8
:10204C0013434B602B4B5B6823F474127B68196A47
:10205C007B685B6A0B43274913434B60274B012278
:10206C001A60FFF7F3FA386108E0FFF7EFFA02465F
:10207C003B69D31A022B01D9032337E01D4B1B6894
:10208C0003F00073002BF0D02FE01C4B00221A60E1
:10209C00FFF7DCFA386108E0FFF7D8FA02463B6933
:1020AC00D31A022B01D9032320E0124B1B6803F037
:1020BC000073002BF0D118E07B68DB69012B01D198
:1020CC00012313E00B4B5B68FB60FB6803F480326D
:1020DC007B681B6A9A4206D1FB6803F470127B681A
:1020EC005B6A9A4201D0012300E00023184618379E
:1020FC00BD4680BD001002400070004060004242AE
:10210C0080B584B000AF786039607B68002B01D15A
:10211C000123D0E06A4B1B6803F007033A689A422C
:10212C0010D9674B1B6823F0070265493B681343C2
:10213C000B60634B1B6803F007033A689A4201D0AB
:10214C000123B8E07B681B6803F00203002B20D04E
:10215C007B681B6803F00403002B05D0594B5B68AC
:10216C00584A43F4E06353607B681B6803F0080330
:10217C00002B05D0534B5B68524A43F460535360B9
:10218C00504B5B6823F0F0027B689B684D4913430E
:10219C004B607B681B6803F00103002B40D07B680D
:1021AC005B68012B07D1474B1B6803F40033002BF2
:1021BC0015D101237FE07B685B68022B07D1414B73
:1021CC001B6803F00073002B09D1012373E03D4B16
:1021DC001B6803F00203002B01D101236BE0394B88
:1021EC005B6823F003027B685B68364913434B60E2
:1021FC00FFF72CFAF8600AE0FFF728FA0246FB68B2
:10220C00D31A41F28832934201D9032353E02D4B68
:10221C005B6803F00C027B685B689B009A42EBD115
:10222C00274B1B6803F007033A689A4210D2244BE1
:10223C001B6823F0070222493B6813430B60204BB9
:10224C001B6803F007033A689A4201D0012332E07D
:10225C007B681B6803F00403002B08D0194B5B68E8
:10226C0023F4E0627B68DB68164913434B607B68A0
:10227C001B6803F00803002B09D0124B5B6823F496
:10228C0060527B681B69DB000E4913434B6000F006
:10229C0021F802460B4B5B681B0903F00F030A493C
:1022AC00CB5C22FA03F3094A1360094B1B681846EE
:1022BC00FFF78AF9002318461037BD4680BD00BFD2
:1022CC000020024000100240EC2B000864000020AB
:1022DC006800002080B487B000AF0023FB600023AF
:1022EC00BB6000237B6100237B6000233B611E4BA2
:1022FC005B68FB60FB6803F00C03042B02D0082B1B
:10230C0003D027E0194B3B6127E0FB689B0C03F0E3
:10231C000F03174AD35C7B60FB6803F48033002BFC
:10232C0010D0114B5B685B0C03F00103114AD35CBA
:10233C00BB607B680D4A02FB03F2BB68B2FBF3F394
:10234C007B6104E07B680C4A02FB03F37B617B69D5
:10235C003B6102E0054B3B6100BF3B6918461C37F3
:10236C00BD4680BC704700BF0010024000127A00CE
:10237C00FC2B00080C2C000800093D0080B485B033
:10238C0000AF78600A4B1B680A4AA2FB03235B0A66
:10239C007A6802FB03F3FB6000BFFB685A1EFA600D
:1023AC00002BF9D100BF00BF1437BD4680BC70476D
:1023BC0064000020D34D621080B582B000AF78600D
:1023CC007B68002B01D1012341E07B6893F83D3001
:1023DC00DBB2002B06D17B68002283F83C207868A6
:1023EC00FFF75AF87B68022283F83D207B681A6855
:1023FC007B6804331946104600F056FA7B680122BC
:10240C0083F846207B68012283F83E207B680122FA
:10241C0083F83F207B68012283F840207B680122EF
:10242C0083F841207B68012283F842207B680122DB
:10243C0083F843207B68012283F844207B680122C7
:10244C0083F845207B68012283F83D200023184641
:10245C000837BD4680BD000080B485B000AF786001
:10246C007B6893F83D30DBB2012B01D0012335E0C2
:10247C007B68022283F83D207B681B68DA687B68E6
:10248C001B6842F00102DA607B681B68164A9342B3
:10249C0009D07B681B68B3F1804F04D07B681B6844
:1024AC00124A934211D17B681B689B6803F00703A7
:1024BC00FB60FB68062B10D07B681B681A687B6876
:1024CC001B6842F001021A6007E07B681B681A68FF
:1024DC007B681B6842F001021A600023184614370F
:1024EC00BD4680BC704700BF002C0140000400407A
:1024FC0080B584B000AF78607B681B68DB68FB60DC
:10250C007B681B681B69BB60BB6803F00203002B74
:10251C0020D0FB6803F00203002B1BD07B681B68E8
:10252C006FF002021A617B6801221A777B681B68C4
:10253C009B6903F00303002B03D0786800F098F933
:10254C0005E0786800F08BF9786800F09AF97B6800
:10255C0000221A77BB6803F00403002B20D0FB6821
:10256C0003F00403002B1BD07B681B686FF0040284
:10257C001A617B6802221A777B681B689B6903F4DB
:10258C004073002B03D0786800F072F905E078688E
:10259C0000F065F9786800F074F97B6800221A770E
:1025AC00BB6803F00803002B20D0FB6803F0080382
:1025BC00002B1BD07B681B686FF008021A617B68CC
:1025CC0004221A777B681B68DB6903F00303002B7A
:1025DC0003D0786800F04CF905E0786800F03FF91A
:1025EC00786800F04EF97B6800221A77BB6803F01C
:1025FC001003002B20D0FB6803F01003002B1BD022
:10260C007B681B686FF010021A617B6808221A77CE
:10261C007B681B68DB6903F44073002B03D078687C
:10262C0000F026F905E0786800F019F9786800F0F8
:10263C0028F97B6800221A77BB6803F00103002B92
:10264C000CD0FB6803F00103002B07D07B681B68E0
:10265C006FF001021A617868FEF710FDBB6803F099
:10266C008003002B0CD0FB6803F08003002B07D0F9
:10267C007B681B686FF080021A61786800F06FFA53
:10268C00BB6803F04003002B0CD0FB6803F0400345
:10269C00002B07D07B681B686FF040021A617868CA
:1026AC0000F0F8F8BB6803F02003002B0CD0FB689B
:1026BC0003F02003002B07D07B681B686FF020020F
:1026CC001A61786800F042FA00BF1037BD4680BD31
:1026DC0080B584B000AF786039600023FB737B68F1
:1026EC0093F83C30012B01D10223B4E07B6801222A
:1026FC0083F83C207B68022283F83D207B681B68B2
:10270C009B68BB60BB6823F07703BB60BB6823F49A
:10271C007F43BB607B681B68BA689A603B681B6828
:10272C00B3F5005F3ED0B3F5005F00F28780B3F5E0
:10273C00805F00F08680B3F5805F7FD8702B1AD055
:10274C00702B7BD8602B50D0602B77D8502B3CD083
:10275C00502B73D8402B58D0402B6FD8302B64D0D3
:10276C00302B6BD8202B60D0202B67D8002B5CD063
:10277C00102B5AD062E07B6818683B6899683B68FC
:10278C005A683B68DB6800F06AF97B681B689B68D9
:10279C00BB60BB6843F07703BB607B681B68BA689F
:1027AC009A604FE07B6818683B6899683B685A6888
:1027BC003B68DB6800F053F97B681B689A687B68A0
:1027CC001B6842F480429A603CE07B6818683B6866
:1027DC0059683B68DB681A4600F0CAF87B681B68CE
:1027EC005021184600F021F92CE07B6818683B68F2
:1027FC0059683B68DB681A4600F0E8F87B681B6890
:10280C006021184600F011F91CE07B6818683B68E1
:10281C0059683B68DB681A4600F0AAF87B681B68AD
:10282C004021184600F001F90CE07B681A683B68FF
:10283C001B681946104600F0F8F803E00123FB73FF
:10284C0000E000BF7B68012283F83D207B680022FA
:10285C0083F83C20FB7B18461037BD4680BD80B406
:10286C0083B000AF786000BF0C37BD4680BC7047AA
:10287C0080B483B000AF786000BF0C37BD4680BC1D
:10288C00704780B483B000AF786000BF0C37BD4692
:10289C0080BC704780B483B000AF786000BF0C3749
:1028AC00BD4680BC7047000080B485B000AF786036
:1028BC0039607B681B68FB607B682B4A934207D0AE
:1028CC007B68B3F1804F03D07B68284A934208D1D0
:1028DC00FB6823F07003FB603B685B68FA6813438A
:1028EC00FB607B68204A934207D07B68B3F1804F32
:1028FC0003D07B681D4A934208D1FB6823F44073D4
:10290C00FB603B68DB68FA681343FB60FB6823F0F1
:10291C0080023B685B691343FB607B68FA681A6052
:10292C003B689A687B68DA623B681A687B689A62D3
:10293C007B680D4A934203D13B681A697B681A6322
:10294C007B6801225A617B681B6903F00103002B31
:10295C0005D07B681B6923F001027B681A6100BFFC
:10296C001437BD4680BC7047002C01400004004069
:10297C0080B487B000AFF860B9607A60FB681B6AFE
:10298C007B61FB681B6A23F00102FB681A62FB681F
:10299C009B693B613B6923F0F0033B617B681B0146
:1029AC003A6913433B617B6923F00A037B617A69C3
:1029BC00BB6813437B61FB683A699A61FB687A696F
:1029CC001A6200BF1C37BD4680BC704780B487B00C
:1029DC0000AFF860B9607A60FB681B6A7B61FB68CA
:1029EC001B6A23F01002FB681A62FB689B693B614F
:1029FC003B6923F470433B617B681B033A691343C7
:102A0C003B617B6923F0A0037B61BB681B017A6986
:102A1C0013437B61FB683A699A61FB687A691A62B5
:102A2C0000BF1C37BD4680BC704780B485B000AF7A
:102A3C00786039607B689B68FB60FB6823F07003EF
:102A4C00FB603A68FB68134343F00703FB607B6849
:102A5C00FA689A6000BF1437BD4680BC704780B4DA
:102A6C0087B000AFF860B9607A603B60FB689B6828
:102A7C007B617B6923F47F437B613B681A027B6833
:102A8C001A43BB6813437A6913437B61FB687A6909
:102A9C009A6000BF1C37BD4680BC704780B485B0BF
:102AAC0000AF786039607B6893F83C30012B01D122
:102ABC00022341E07B68012283F83C207B680222E0
:102ACC0083F83D207B681B685B68FB607B681B6838
:102ADC009B68BB60FB6823F07003FB603B681B6862
:102AEC00FA681343FB607B681B68FA685A607B6862
:102AFC001B68144A934209D07B681B68B3F1804F62
:102B0C0004D07B681B68104A93420CD1BB6823F03D
:102B1C008003BB603B685B68BA681343BB607B682F
:102B2C001B68BA689A607B68012283F83D207B6839
:102B3C00002283F83C20002318461437BD4680BC85
:102B4C00704700BF002C01400004004080B483B0EB
:102B5C0000AF786000BF0C37BD4680BC704780B4B6
:102B6C0083B000AF786000BF0C37BD4680BC7047A7
:102B7C0070B500260C4D0D4C641BA410A64209D157
:102B8C0000F022F800260A4D0A4C641BA410A64241
:102B9C0005D170BD55F8043B98470136EEE755F862
:102BAC00043B98470136F2E7102C0008102C000863
:102BBC00102C0008142C000803460244934200D148
:102BCC00704703F8011BF9E7F8B500BFF8BC08BC67
:102BDC009E467047F8B500BFF8BC08BC9E467047CF
:102BEC0000000000000000000102030406070809B1
:102BFC0002030405060708090A0B0C0D0E0F101032
:042C0C0001020000C1
:042C10003101000886
:042C14000D010008A6
:102C1800002001000200000000100140000C0140EB
:102C2800000C01400100000000000000000000004E
:102C3800010000000000000000000000010000008A
:102C4800000000000000000001000000000000007B
:102C58000000000064000000640000006400000040
:102C68000500000002000000030000000100000051
:102C78000A00000000127A001000000001000000A5
:040000050800155D7D
:00000001FF
